:100000000C9463000C948B000C948B000C948B006C
:100010000C948B000C948B000C948B000C948B0034
:100020000C948B000C948B000C948B000C948B0024
:100030000C948B000C948B000C948B000C948B0014
:100040000C94CB040C948B000C9499040C947304C2
:100050000C948B000C948B000C948B000C948B00F4
:100060000C9415050C948B00000000002400270060
:100070002A0000000000250028002B0000000000DE
:1000800023002600290004040404040404040202DA
:100090000202020203030303030301020408102007
:1000A0004080010204081020010204081020000012
:1000B0000008000201000003040700000000000027
:1000C00000004306830911241FBECFEFD8E0DEBF36
:1000D000CDBF11E0A0E0B1E0E8EEFBE102C0059089
:1000E0000D92A438B107D9F723E0A4E8B1E001C02C
:1000F0001D92A531B207E1F710E0C2E6D0E004C0DE
:100100002197FE010E948909C136D107C9F70E94D3
:100110008E060C94E70D0C940000E2E6F2E0A08954
:10012000B18982E08C93A485B5851C92A685B7859C
:1001300080E18C93108EA489B58986E08C93A28986
:10014000B3898C9180618C93A289B3898C918860EA
:100150008C93A289B3898C9180688C930288F389EF
:10016000E02D80818F7D80830895CF92DF92EF9282
:10017000FF920F931F93CF93DF936C017A018B0152
:10018000C0E0D0E0CE15DF0589F0D8016D918D017A
:10019000D601ED91FC910190F081E02DC601099509
:1001A000892B11F47E0102C02196ECCFC701DF91AB
:1001B000CF911F910F91FF90EF90DF90CF90089516
:1001C000E0912102F0912202309729F0109218025A
:1001D0001092170209940895CF93DF93AC01E09138
:1001E0001F02F09120023097F1F090911A02809155
:1001F00019029817C0F090E0292F30E02617370732
:1002000054F4D901AC57BE4FEA01C20FD31F888105
:100210008C939F5FF1CF10921A0260931902CB0169
:10022000DF91CF910994DF91CF910895FC01918DD9
:10023000828D981761F0828DDF01A80FB11D5D9648
:100240008C91928D9F5F9F73928F90E008958FEFB6
:100250009FEF0895FC01918D828D981731F0828D6A
:10026000E80FF11D858D90E008958FEF9FEF0895C1
:10027000FC01918D228D892F90E0805C9F4F821B25
:1002800091098F739927089582E692E00E943801C0
:1002900021E0892B09F420E0822F0895FC01848D50
:1002A000DF01A80FB11DA35ABF4F2C91848D90E0A0
:1002B00001968F739927848FA689B7892C93A0897B
:1002C000B1898C9180648C93938D848D981306C032
:1002D0000288F389E02D80818F7D80830895EF92DD
:1002E000FF920F931F93CF93DF93EC0181E0888FF0
:1002F0009B8D8C8D981305C0E889F989808185FDD7
:1003000024C0F62E0B8D10E00F5F1F4F0F731127C7
:10031000E02E8C8DE8120CC00FB607FCFACFE889EE
:10032000F989808185FFF5CFCE010E944E01F1CF82
:100330008B8DFE01E80FF11DE35AFF4FF0820B8F0A
:10034000EA89FB898081806207C0EE89FF8960832A
:10035000E889F98980818064808381E090E0DF9181
:10036000CF911F910F91FF90EF900895CF93DF935E
:10037000EC01888D8823C9F0EA89FB89808185FD9D
:1003800005C0A889B9898C9186FD0FC00FB607FCFE
:10039000F5CF808185FFF2CFA889B9898C9185FF3F
:1003A000EDCFCE010E944E01E7CFDF91CF910895AE
:1003B00080E090E0892B29F00E94440181110C9487
:1003C00000000895833081F028F4813099F0823064
:1003D000A1F008958730A9F08830B9F08430D1F4C5
:1003E000809180008F7D03C0809180008F77809303
:1003F0008000089584B58F7702C084B58F7D84BD59
:1004000008958091B0008F7703C08091B0008F7DF8
:100410008093B00008951F93CF93DF93282F30E08F
:10042000F901E255FF4F8491F901E656FF4FD4914F
:10043000F901EA57FF4FC491CC23C9F0162F81115F
:100440000E94E201EC2FF0E0EE0FFF1FEE58FF4F8D
:10045000A591B4918FB7F894111105C09C91ED2F1F
:10046000E095E92302C0EC91ED2BEC938FBFDF9177
:10047000CF911F910895CF93DF9390E0FC01E65652
:10048000FF4F2491FC01EA57FF4F8491882361F1CB
:1004900090E0880F991FFC01E859FF4FC591D49156
:1004A000FC01EE58FF4FA591B491611109C09FB7AF
:1004B000F8948881209582238883EC912E230BC0A9
:1004C000623061F49FB7F8943881822F809583233E
:1004D0008883EC912E2B2C939FBF06C08FB7F89486
:1004E000E8812E2B28838FBFDF91CF9108951F9332
:1004F000CF93DF93182FEB0161E00E943B0220971E
:1005000011F460E004C0CF3FD10539F461E0812FE0
:10051000DF91CF911F910C940B02E12FF0E0E25597
:10052000FF4FE491E330F9F048F4E130B9F0E23004
:10053000A1F584B5806284BDC8BD34C0E730E9F060
:10054000E83019F1E43049F58091800080628093B1
:100550008000D0938B00C0938A0024C084B580684B
:1005600084BDC7BD1FC080918000806880938000DB
:10057000D0938900C093880015C08091B000806836
:100580008093B000C093B3000DC08091B000806232
:100590008093B000C093B40005C0C038D1050CF002
:1005A000B5CFAFCFDF91CF911F9108953FB7F894AA
:1005B0008091100290911102A0911202B091130249
:1005C00026B5A89B05C02F3F19F00196A11DB11DAE
:1005D0003FBFBA2FA92F982F8827820F911DA11DE9
:1005E000B11DBC01CD0142E0660F771F881F991F26
:1005F0004A95D1F708958F929F92AF92BF92CF9272
:10060000DF92EF92FF926B017C010E94D6024B01B8
:100610005C01C114D104E104F104F1F00E94D6029E
:10062000DC01CB0188199909AA09BB09883E9340CE
:10063000A105B10570F321E0C21AD108E108F10863
:1006400088EE880E83E0981EA11CB11CC114D10451
:10065000E104F10419F7DDCFFF90EF90DF90CF9028
:10066000BF90AF909F908F9008952FB7F8946091AE
:100670000C0270910D0280910E0290910F022FBF1B
:10068000089585ED8093BC008091BC0084FDFCCF73
:100690001092160208954091C401262F30E0240FD5
:1006A000311D21323105DCF4209116022430C9F4C9
:1006B000FC0180E090E0861758F43091C40121914C
:1006C000DC01AC55BE4FA30FB11D2C930196F3CFA7
:1006D0008091C401680F6093C40180E0089581E0B7
:1006E000089582E008950895E0911A028091190218
:1006F000E81730F4F0E0EC57FE4F808190E0089569
:100700008FEF9FEF089590911A0280911902981728
:1007100050F4E92FF0E0EC57FE4F208130E09F5F6E
:1007200090931A0202C02FEF3FEFC9010895809104
:10073000190290E020911A02821B91090895CF932B
:10074000DF9300D0CDB7DEB7CB01642F49835A8346
:100750000E944B034981842F5A81952F0F900F904F
:10076000DF91CF910895CF93DF931F92CDB7DEB77E
:10077000698361E0CE0101960E944B0381E090E025
:100780000F90DF91CF910895EDE0F3E04281538126
:10079000608171818FEF92E00C949F036115710568
:1007A00079F0FB0101900020E9F73197AF01461B7A
:1007B000570BDC01ED91FC910280F381E02D09944F
:1007C00080E090E008954F925F926F927F92EF9257
:1007D000FF920F931F93CF93DF93CDB7DEB7A1970F
:1007E0000FB6F894DEBF0FBECDBF7C01FA01CB017E
:1007F00019A2223008F42AE08E010F5D1F4F422E0D
:10080000512C612C712CBF01A30192010E948E0D0D
:10081000F901CA01015011096A3014F4605D01C088
:10082000695CD8016C93232B242B252B61F7B8012D
:10083000C7010E94CE03A1960FB6F894DEBF0FBE8B
:10084000CDBFDF91CF911F910F91FF90EF907F90DF
:100850006F905F904F9008950E94D80AEF92FF9298
:100860000F931F93CF93DF931F92CDB7DEB77C0119
:100870008FEF92E00E948303182F81111EC061E068
:1008800070E0C7010E948F098C019091190280913C
:100890001A02981749F08FEF92E00E948303F80143
:1008A00080830F5F1F4FF1CFA701B80180910D0327
:1008B00090910E030E94DD0A0EC08FEF92E00E941D
:1008C00083038983E0910D03F0910E03E10FF11D85
:1008D000E081F0E080830F90DF91CF911F910F9125
:1008E000FF90EF9008951F920F920FB60F92112470
:1008F0002F933F934F935F936F937F938F939F9328
:10090000AF93BF93EF93FF9382E692E00E944E0174
:10091000FF91EF91BF91AF919F918F917F916F91D7
:100920005F914F913F912F910F900FBE0F901F90AD
:1009300018951F920F920FB60F9211242F938F9339
:100940009F93EF93FF93E0917202F0917302808185
:10095000E0917802F091790282FD12C0908180913D
:100960007B028F5F8F7320917C02821751F0E091A0
:100970007B02F0E0EE59FD4F958F80937B0201C022
:100980008081FF91EF919F918F912F910F900FBEDA
:100990000F901F9018951F920F920FB60F9211246F
:1009A0002F933F938F939F93AF93BF9380910C02AC
:1009B00090910D02A0910E02B0910F0230910B02A6
:1009C00023E0230F2D3720F40196A11DB11D05C092
:1009D00026E8230F0296A11DB11D20930B028093E0
:1009E0000C0290930D02A0930E02B0930F0280911F
:1009F000100290911102A0911202B091130201967F
:100A0000A11DB11D8093100290931102A0931202B8
:100A1000B0931302BF91AF919F918F913F912F910E
:100A20000F900FBE0F901F9018951F920F920FB648
:100A30000F9211242F933F934F935F936F937F9364
:100A40008F939F93AF93BF93EF93FF938091B900E0
:100A5000887F803609F49CC068F5883209F45BC051
:100A600090F4803109F454C038F4882309F4F6C0B6
:100A7000883009F44DC0F6C0883109F44CC080328A
:100A800009F45DC0EFC0803409F468C048F48033D5
:100A900009F455C0883309F0E5C08093E701D8C058
:100AA000803509F44FC0883509F45DC0883409F0F9
:100AB000D9C0D6C0883909F4C7C0A8F4883709F46A
:100AC00067C038F4883609F463C0803709F460C021
:100AD000C9C0883809F4B8C0803909F45FC08038CB
:100AE00009F0C0C05BC0803B09F486C038F4803A8E
:100AF00009F466C0883A09F47FC0B4C0803C09F4A8
:100B0000A7C0883C09F4A4C0883B09F48AC0AAC0E5
:100B100080910A0210C090910902809108029817F2
:100B200070F5E091090281E08E0F80930902F0E0F8
:100B3000E851FE4F80818093BB0085EC86C0809396
:100B4000E7018EC0E091090281E08E0F80930902D7
:100B50008091BB00F0E0E851FE4F80839091090244
:100B6000809108026EC0E091090281E08E0F8093AF
:100B700009028091BB00F0E0E851FE4F8083809134
:100B8000150281116DC081E08093140284EA61C076
:100B900083E0809316021092E601CFCF8091E601A8
:100BA000803208F051C0E091E60181E08E0F809321
:100BB000E6018091BB00F0E0EA53FE4F8083BDCF99
:100BC00085EC8093BC00109216028091E601803281
:100BD00030F4E091E601F0E0EA53FE4F10826091BC
:100BE000E60170E0E0911B02F0911C0286EC91E0BE
:100BF00009951092E60136C084E0809316021092A7
:100C0000C5011092C401E0911D02F0911E020995E8
:100C10008091C401811105C081E08093C4011092CC
:100C2000A401E091C50181E08E0F8093C501F0E041
:100C3000EC55FE4F80818093BB009091C50180915F
:100C4000C401981708F479CF85E88093BC000AC0E6
:100C500085EC8093BC001092160204C01092E7014C
:100C60000E944103FF91EF91BF91AF919F918F91AE
:100C70007F916F915F914F913F912F910F900FBE98
:100C80000F901F901895E2E6F2E01382128288EE30
:100C900093E0A0E0B0E084839583A683B7832AE045
:100CA00031E03183208325EC30E03587248724EC44
:100CB00030E03787268720EC30E0318B208B21EC29
:100CC00030E0338B228B22EC30E0358B248B26EC0A
:100CD00030E0378B268B118E128E138E148EEFEF31
:100CE000F2E01382128284839583A683B7838AE11C
:100CF00091E09183808361E070E088E090E00E9461
:100D00008F09EDE0F3E09183808328E030E03383C6
:100D1000228390930C0380930B030895789484B5F9
:100D2000826084BD84B5816084BD85B5826085BDE7
:100D300085B5816085BD80916E00816080936E0075
:100D40001092810080918100826080938100809167
:100D50008100816080938100809180008160809318
:100D600080008091B10084608093B1008091B000D8
:100D700081608093B00080917A00846080937A00D3
:100D800080917A00826080937A0080917A008160FD
:100D900080937A0080917A00806880937A00109224
:100DA000C1001092560210925702109258021092EF
:100DB00059021092240210922502109226021092DB
:100DC000270260ED77E080E090E00E94FB0282E67F
:100DD00092E090935502809354020E948D000E94ED
:100DE00035030091240210912502209126023091B2
:100DF0002702DC01CB01801B910BA20BB30BC29726
:100E0000A105B10538F463E070E080E090E00E9455
:100E1000FB02E5CF0E943503609324027093250204
:100E2000809326029093270266E271E0809154023B
:100E3000909155020E94CE036AE070E080E090E05D
:100E40000E94FB02C1E0C093280261E08CE00E9496
:100E50003B0261E08CE00E940B0282ED8093BA00BD
:100E600080EE90E090931E0280931D028CEE90E045
:100E700090931C0280931B0210921A021092190286
:100E8000109218021092170210921602C0931502C7
:100E90001092140261E082E10E940B0261E083E1A2
:100EA0000E940B028091B9008E7F8093B9008091DF
:100EB000B9008D7F8093B90088E48093B80085E401
:100EC0008093BC008EE294E09093200280931F02F6
:100ED00084EC93E090932202809321020E948D0083
:100EE0001F9289E68F9388E391E09F938F938CE321
:100EF00091E09F938F930E94ED0A6C01990FEE0889
:100F0000FF080F900F900F900F900F900F90F7FE2B
:100F100014C0E0916202F09163020190F081E02D33
:100F20006DE282E692E0099544275527BA014C19F3
:100F30005D096E097F092AE003C02AE0B701A60116
:100F400082E692E00E94E30361E871E082E692E0CB
:100F50000E94CE0361E08EE00E943B0261E08FE0E0
:100F60000E943B0261E081E10E943B0261E084E17A
:100F70000E943B0261E083E00E943B0261E085E069
:100F80000E943B0261E086E00E943B0261E084E057
:100F90000E943B0261E08DE00E943B0260E082E043
:100FA0000E943B0260E08CE00E940B023BEB632E50
:100FB00030E0732E07EA10E043E9E42E40E0F42E1F
:100FC0000E943503672B682B692B09F0EBC00E9448
:100FD0003503623071058105910508F0E3C03DC01D
:100FE0000E943503609324027093250280932602A9
:100FF0009093270261E671E080915402909155022E
:101000000E94CE0369E671E08091540290915502EE
:101010000E94CE030E943503AB01BC012AE08091FF
:101020005402909155020E94E3036BE671E08091B7
:101030005402909155020E94CE0365E070E080E07A
:1010400090E00E94FB026AE070E080E090E00E9485
:10105000FB02809128028111FFC0F3018491F80105
:10106000C490F701D490DD20A9F081110E94E20123
:101070008D2D90E0880F991F84589F4FFC01A591FA
:10108000B4918C91C82291E080E009F490E0692F3E
:10109000782F02C060E070E0F1E06F278DE00E94E1
:1010A0000B02C0910B03D0910C03E881F9816081A0
:1010B00070E08EE00E947702EA81FB81608170E03F
:1010C0008FE00E947702EC81FD81608170E081E118
:1010D0000E947702EE81FF81608170E084E10E94CE
:1010E0007702E885F98561E08081811101C060E0C7
:1010F00083E00E940B02EC85FD8561E08081811117
:1011000001C060E085E00E940B02EE85FF8561E092
:101110008081811101C060E086E00E940B02EA85B7
:10112000FB8561E08081811101C060E084E00E9464
:101130000B020E943503AB01BC012AE082E692E07B
:101140000E94E303C0900B03D0900C03560129E0EA
:10115000A20EB11CE0916202F09163020190F08155
:10116000E02D6CE282E692E00995D6014D916D0189
:1011700050E060E070E02AE082E692E00E94E30343
:10118000CA14DB0439F761E871E082E692E00E945C
:10119000CE0368EE73E080E090E00E94FB020E94C4
:1011A000D8010ECF0E94350360935E0270935F02F8
:1011B000809360029093610280905A0290905B024B
:1011C000A0905C02B0905D02681579058A059B05C8
:1011D00040F460935A0270935B0280935C02909398
:1011E0005D0280905A0290905B02A0905C02B090E9
:1011F0005D029B01AC01281939094A095B094901C3
:101200005A013AEF83169104A104B10408F425CFE2
:1012100060935A0270935B0280935C0290935D022C
:101220000E9435038090240290902502A09026020F
:10123000B0902702DC01CB0188199909AA09BB09E2
:10124000C297A105B10508F0CBCE63E070E080E065
:1012500090E00E94FB02E4CF8091540290915502ED
:10126000DC01ED91FC910480F581E02D0995892B3D
:1012700099F38091540290915502DC01ED91FC911B
:101280000480F581E02D0995181619060CF0E5CEBD
:101290008091540290915502DC01ED91FC91068001
:1012A000F781E02D099599278336910551F086370E
:1012B000910509F4D2CE88359105D9F6109228020D
:1012C000D8CF64E771E080915402909155020E945A
:1012D000CE032AE041E050E060E070E080915402EB
:1012E000909155020E94E3036BE771E080915402F4
:1012F000909155020E94CE0362E370E080E090E09E
:101300000E94FB02AACE80910D0390910E030C94D3
:10131000400AEE0FFF1F0590F491E02D09940F9302
:101320001F93CF93DF93869F8001879F100D969F19
:10133000100D1124C8010E94AB09EC01009729F09F
:10134000A80160E070E00E94E60ACE01DF91CF9133
:101350001F910F910895CF93DF938230910510F480
:1013600082E090E0E0911303F091140320E030E07C
:10137000C0E0D0E0309711F1408151814817590702
:10138000C0F04817590761F482819381209719F0C2
:101390009B838A832BC0909314038093130326C0EE
:1013A0002115310519F04217530718F49A01BE01AF
:1013B000DF01EF010280F381E02DDCCF2115310543
:1013C00009F1281B390B2430310590F412968D91C8
:1013D0009C9113976115710521F0FB019383828322
:1013E00004C09093140380931303FD01329644C00C
:1013F000FD01E20FF31F81939193225031092D9348
:101400003C933AC02091110330911203232B41F4F5
:1014100020910201309103013093120320931103B4
:1014200020910001309101012115310541F42DB7C2
:101430003EB74091040150910501241B350BE0910A
:101440001103F0911203E217F307A0F42E1B3F0BD8
:101450002817390778F0AC014E5F5F4F2417350726
:1014600048F04E0F5F1F5093120340931103819376
:10147000919302C0E0E0F0E0CF01DF91CF910895B9
:101480000F931F93CF93DF93009709F48CC0FC0157
:1014900032971382128200911303109114030115E5
:1014A000110581F420813181820F931F2091110356
:1014B000309112032817390779F5F0931203E0935E
:1014C000110371C0D80140E050E0AE17BF0750F4DF
:1014D00012962D913C911397AD012115310509F11B
:1014E000D901F3CF9D01DA013383228360817181B9
:1014F000860F971F8217930769F4EC0128813981C1
:10150000260F371F2E5F3F4F318320838A819B81B7
:1015100093838283452B29F4F0931403E093130300
:1015200042C01396FC93EE931297ED0149915991A5
:101530009E01240F351FE217F30771F4808191811A
:10154000840F951F029611969C938E9382819381AE
:1015500013969C938E931297E0E0F0E0D8011296D8
:101560008D919C911397009719F0F8018C01F6CF9B
:101570008D919C9198012E5F3F4F820F931F209178
:101580001103309112032817390769F4309729F4B1
:10159000109214031092130302C01382128210934C
:1015A000120300931103DF91CF911F910F910895C2
:1015B00081E090E0F8940C94E70DFB01DC0102C09F
:1015C00001900D9241505040D8F70895DC0101C0C0
:1015D0006D9341505040E0F70895AEE0B0E0E3EF86
:1015E000FAE00C94BE0D0D891E8986E08C831A8367
:1015F00009838FEF9FE79E838D83AE01475E5F4F28
:101600006F89788DCE0101960E94100B2F8138854D
:10161000F801E20FF31F10822E96E4E00C94DA0D2D
:10162000ACE0B0E0E6E1FBE00C94B00D7C016B01B6
:101630008A01FC0117821682838181FFBDC1CE0120
:1016400001964C01F7019381F60193FD859193FF7B
:1016500081916F01882309F4ABC1853239F493FD80
:10166000859193FF81916F01853229F4B70190E054
:101670000E94F80CE7CF512C312C20E02032A0F44E
:101680008B3269F030F4803259F0833269F4206192
:101690002CC08D3239F0803339F4216026C02260AD
:1016A000246023C0286021C027FD27C030ED380FFB
:1016B0003A3078F426FF06C0FAE05F9E300D112420
:1016C000532E13C08AE0389E300D1124332E206231
:1016D0000CC08E3221F426FD6BC1206406C08C360E
:1016E00011F4206802C0883641F4F60193FD85911B
:1016F00093FF81916F018111C1CF982F9F7D9554E8
:10170000933028F40C5F1F4FFFE3F9830DC083363D
:1017100031F0833771F0833509F05BC022C0F801E6
:10172000808189830E5F1F4F44244394512C5401C0
:1017300015C03801F2E06F0E711CF801A080B18075
:1017400026FF03C0652D70E002C06FEF7FEFC5017B
:101750002C870E94ED0C2C0183012C852F77222EE3
:1017600017C03801F2E06F0E711CF801A080B18043
:1017700026FF03C0652D70E002C06FEF7FEFC5014B
:101780002C870E94E20C2C012C852068222E8301DC
:1017900023FC1BC0832D90E048165906B0F4B70116
:1017A00080E290E00E94F80C3A94F4CFF50127FC17
:1017B000859127FE81915F01B70190E00E94F80CAE
:1017C00031103A94F1E04F1A51084114510471F765
:1017D000E5C0843611F0893639F5F80127FF07C0D6
:1017E00060817181828193810C5F1F4F08C060818D
:1017F0007181072E000C880B990B0E5F1F4F2F76FF
:10180000722E97FF09C090958095709561957F4FD6
:101810008F4F9F4F2068722E2AE030E0A4010E9473
:10182000300DA82EA81844C0853729F42F7EB22E7B
:101830002AE030E025C0F22FF97FBF2E8F36C1F0AD
:1018400018F4883579F0B4C0803719F0883721F062
:10185000AFC02F2F2061B22EB4FE0DC08B2D84603F
:10186000B82E09C024FF0AC09F2F9660B92E06C06B
:1018700028E030E005C020E130E002C020E132E0A5
:10188000F801B7FE07C060817181828193810C5F8E
:101890001F4F06C06081718180E090E00E5F1F4F96
:1018A000A4010E94300DA82EA818FB2DFF777F2ED3
:1018B00076FE0BC0372D3E7FA51450F474FE0AC08F
:1018C00072FC08C0372D3E7E05C0BA2C372D03C0F0
:1018D000BA2C01C0B52C34FF0DC0FE01EA0DF11D7C
:1018E0008081803311F4397E09C032FF06C0B39481
:1018F000B39404C0832F867809F0B39433FD13C0EA
:1019000030FF06C05A2CB31418F4530C5B18B32CD8
:10191000B31468F4B70180E290E03C870E94F80CB1
:10192000B3943C85F5CFB31410F43B1801C0312CAF
:1019300034FF12C0B70180E390E03C870E94F80CAE
:101940003C8532FF17C031FD03C088E790E002C03C
:1019500088E590E0B7010CC0832F867859F031FFFD
:1019600002C08BE201C080E237FD8DE2B70190E05A
:101970000E94F80CA51438F4B70180E390E00E94AF
:10198000F80C5A94F7CFAA94F401EA0DF11D808166
:10199000B70190E00E94F80CA110F5CF332009F4B4
:1019A00051CEB70180E290E00E94F80C3A94F6CF55
:1019B000F7018681978102C08FEF9FEF2C96E2E1BD
:1019C0000C94CC0DFC010590615070400110D8F7CB
:1019D000809590958E0F9F1F0895FC016150704077
:1019E00001900110D8F7809590958E0F9F1F089554
:1019F0000F931F93CF93DF93FB01238121FD03C03E
:101A00008FEF9FEF28C022FF16C0468157812481A7
:101A100035814217530744F4A081B1819D012F5FA6
:101A20003F4F318320838C93268137812F5F3F4F37
:101A30003783268310C0EB01092F182F0084F1850E
:101A4000E02D0995892BE1F68E819F8101969F8378
:101A50008E83812F902FDF91CF911F910F91089549
:101A6000FA01AA27283051F1203181F1E8946F93CF
:101A70006E7F6E5F7F4F8F4F9F4FAF4FB1E03ED075
:101A8000B4E03CD0670F781F891F9A1FA11D680F13
:101A9000791F8A1F911DA11D6A0F711D811D911D46
:101AA000A11D20D009F468943F912AE0269F1124BB
:101AB0003019305D3193DEF6CF010895462F47701F
:101AC000405D4193B3E00FD0C9F7F6CF462F4F707A
:101AD000405D4A3318F0495D31FD4052419302D0D8
:101AE000A9F7EACFB4E0A69597958795779567957E
:101AF000BA95C9F700976105710508959B01AC017E
:101B00000A2E06945795479537952795BA95C9F7A4
:101B1000620F731F841F951FA01D0895A1E21A2E46
:101B2000AA1BBB1BFD010DC0AA1FBB1FEE1FFF1F81
:101B3000A217B307E407F50720F0A21BB30BE40BD1
:101B4000F50B661F771F881F991F1A9469F7609518
:101B50007095809590959B01AC01BD01CF010895D2
:101B60002F923F924F925F926F927F928F929F92AD
:101B7000AF92BF92CF92DF92EF92FF920F931F939B
:101B8000CF93DF93CDB7DEB7CA1BDB0B0FB6F8944C
:101B9000DEBF0FBECDBF09942A88398848885F848C
:101BA0006E847D848C849B84AA84B984C884DF80FD
:101BB000EE80FD800C811B81AA81B981CE0FD11DE1
:101BC0000FB6F894DEBF0FBECDBFED01089510E053
:101BD000C2E6D0E004C0FE010E9489092196C33606
:081BE000D107C9F7F894FFCF0B
:101BE800000015038000000000006F01B5003801F7
:101BF80016012A01B60100000000B3039F039703F2
:101C0800830374037303564D4450565F317C315F30
:101C1800564D4450560D0A00312E31005069466920
:101C280073682056657273696F6E2025730A49328E
:101C380043206164647265737320307825303258AC
:101C480000564D4450455F31007C005F564D44506E
:101C5800450D0A00564D4450435F005F564D4450B1
:041C6800430D0A001E
:00000001FF
