:100000002BC04FC04EC04DC04CC04BC04AC049C0B1
:1000100048C047C046C0E1C344C043C042C0DDC47D
:1000200026C400003900360000000000000403026E
:1000300001000000003B00380000003A00370001DA
:100040000101010101010102020201020408102064
:10005000408004020100CE0611241FBECFE5D2E08D
:10006000DEBFCDBF10E0A0E6B0E0ECE9F1E102C0F8
:1000700005900D92A236B107D9F721E0A2E6B0E0D3
:1000800001C01D92AC38B207E1F710E0CCE2D0E03D
:1000900003C02197FE01E8D6CB32D107D1F7BAD4FD
:1000A0007BC8AECF90E0FC01E65BFF4F2491FC01E2
:1000B000E15CFF4F8491882399F090E0880F991FAD
:1000C000FC01E75CFF4FA591B491FC01ED5CFF4F93
:1000D000859194918FB7F894EC91E22BEC938FBFBC
:1000E0000895823099F018F4813069F008958330D2
:1000F00019F0843021F008958FB58F7702C08FB545
:100100008F7D8FBD089580B78F7702C080B78F7DB8
:1001100080BF08951F93CF93DF93282F30E0F9011C
:10012000E85DFF4F8491F901E65BFF4FD491F9013F
:10013000E15CFF4FC491CC23C1F0162F8111D1DFB8
:10014000EC2FF0E0EE0FFF1FED5CFF4FA591B49197
:100150008FB7F894111105C09C91ED2FE095E9231C
:1001600002C0EC91ED2BEC938FBFDF91CF911F91EB
:1001700008953FB7F89480918B0090918C00A091E6
:100180008D00B0918E0022B708B600FE05C02F3F4B
:1001900019F00196A11DB11D3FBFBA2FA92F982FAD
:1001A0008827820F911DA11DB11DBC01CD0143E027
:1001B000660F771F881F991F4A95D1F708952FB7AB
:1001C000F8946091870070918800809189009091E7
:1001D0008A002FBF08958F929F92AF92BF92CF92C5
:1001E000DF92EF92FF920F931F93CF93DF93E7DF9E
:1001F0006B017C0180918A0190918B011816190680
:100200000CF05FC08091820190918301A0918401E4
:10021000B091850146015701881A990AAA0ABB0ABA
:100220006091860170918701809188019091890188
:100230002AE030E040E050E0F5D5281539054A05C0
:100240005B0508F03EC0C0918001D09181019E0104
:100250003327F901E85DFF4F8491F901E65BFF4F19
:100260000491F901E15CFF4F1491112399F0811180
:1002700038DFE12FF0E0EE0FFF1FEE5DFF4FA5919D
:10028000B491EC91E02391E080E009F490E0692FD3
:10029000782F02C060E070E081E068278C2F3ADFA1
:1002A00080918A0190918B01019790938B018093AB
:1002B0008A01C0928201D0928301E0928401F0927F
:1002C0008501DF91CF911F910F91FF90EF90DF900B
:1002D000CF90BF90AF909F908F9008959091910094
:1002E00080919200981791F09091910080919200E6
:1002F000981730F48091910090919200805F04C033
:100300008091910090919200891B089580E008955A
:1003100090919100809192009817D1F38091920072
:100320008F5F8F7080939200E0919200F0E0EE5921
:10033000FF4F808108950F931F93CF93DF93FC01AC
:10034000442311F0178210868481958186179707C0
:1003500009F446C0EB016F3F710519F014F0CFEFBF
:10036000D0E0D7FF02C0C0E0D0E0D583C4830081D5
:100370001181802F97DE209751F1CF3FD10549F1B0
:10038000F801FF27E85DFF4FE491E23091F038F487
:10039000E130D1F480B7806880BFC6BF21C0E330B0
:1003A00069F0E43089F48FB580628FBDD9BDC8BDD6
:1003B00017C080B7806280BFCCBF12C08FB5806885
:1003C0008FBDDBBDCABD0CC0C038D10514F460E0E0
:1003D00001C061E0802FDF91CF911F910F919ACEE4
:1003E000DF91CF911F910F910895FC01862F158207
:1003F0001482168213861486158616861786108A2E
:10040000118A128A148A138A158A168A21E030E02A
:10041000308F278B118E128E138E148E158E168EA2
:10042000178E10A212A211A213A214A236A325A302
:1004300017A210A611A612A613A614A615A616A6F4
:1004400010AA17A611AA12AA34AB23AB15AA16AA92
:1004500017AA10AE11AE12AE13AE14AE16AE15AE94
:1004600017AEDF01A05CBF4F1C9211962D933C93F9
:100470006083718317CE0F931F93CF93DF93FC019B
:1004800024853585232BC9F4EC0199DE0C811D816F
:100490002E813F81DC01CB01801B910BA20BB30BA2
:1004A000088119812A813B8180179107A207B30730
:1004B00020F081E090E09D878C87DF91CF911F91A4
:1004C0000F910895CF93DF93EC0179DE6C837D83E8
:1004D0008E839F831D861C861A861B86DF91CF9193
:1004E0000895CF92DF92EF92FF920F931F93CF93D5
:1004F000DF93EC018F81882331F18C819D818F3FC7
:10050000910509F003C1CE014996B5DF8DA19EA1E9
:10051000019709F0FBC040E060E070E0CE010BDF26
:10052000CE01C596CFDF8E8181110DC08A819B815E
:10053000181619061CF401979B838A838A819B8174
:10054000892B09F41F828885882309F404C1098551
:100550001A850130110509F445C024F4011511056F
:1005600051F0F9C00230110509F453C003301105F0
:1005700009F49EC0F0C0CE010B967DDF8F89988D67
:10058000892B51F58B859C85AD85BE85892B8A2B62
:100590008B2BE9F014DECF84D888E988FA886C19AF
:1005A0007D098E099F09FFD46B017C016B857C85D9
:1005B0008D859E85F8D49B01AC01C701B6015AD444
:1005C00020E030E048EC52E47CD5BCD48B01B8018B
:1005D000110F880B990B56C0CE01499673DF81E04D
:1005E00090E063C0CE01499646DF8DA19EA1892B84
:1005F00051F48C819D818F3F910509F4ACC040E09E
:100600006FEF70E067C0CE0187965CDF82E090E01C
:100610004CC0CE0187962FDF8BA99CA9892B09F0AE
:100620003FC08FA198A5A9A5BAA5892B8A2B8B2B92
:10063000E9F0C5DDCBA4DCA4EDA4FEA46C197D0912
:100640008E099F09B0D46B017C016FA178A589A5A3
:100650009AA5A9D49B01AC01C701B6010BD420E037
:1006600030E048EC52E42DD56DD402C060E070E07B
:1006700084E690E09C01261B370BB901072E000C85
:10068000880B990B92D420E030E048EC52E4F2D38E
:1006900020E030E04FE753E414D554D440E01AC0D2
:1006A000CE01C5960FDF83E090E09A87898753C01B
:1006B000CE01C596E0DEFE01EF5BFF4F80819181A8
:1006C000892B91F48C819D81892B09F444C040E0F1
:1006D00060E070E0CE01DF91CF911F910F91FF900C
:1006E000EF90DF90CF9027CE8E81811109C08A8153
:1006F0009B811816190654F501979B838A8326C09F
:10070000CE010B96DFDE1A86198625C08C819D816D
:10071000892B51F4CE01C596AEDEFE01EF5BFF4F93
:1007200080819181019749F08C819D818F3F910556
:1007300009F409CF892B09F406CF40E06FEF70E090
:10074000CE01F9DDCE014996BDDEFDCE8A819B81C9
:10075000892BB1F61886DF91CF911F910F91FF90F1
:10076000EF90DF90CF90089580919B00813059F0F9
:1007700038F0823059F08F3F59F49091600008C0F2
:100780009091390105C09091F40002C09091AF00A2
:1007900080918F008F5F8F70209190008217E1F31E
:1007A000E82FF0E0EE58FF4F908380938F0008957C
:1007B0008150843088F4ACDD80939B008FDD8823EA
:1007C00059F0A6DD80939A0089DD882311F0A0DD21
:1007D000FBCF81E080939C0008951F920F920FB68B
:1007E0000F9211242F933F938F939F93AF93BF93B7
:1007F0008091870090918800A0918900B0918A0033
:100800003091860026E0230F2D3720F40296A11D9B
:10081000B11D05C029E8230F0396A11DB11D20932A
:1008200086008093870090938800A0938900B093FE
:100830008A0080918B0090918C00A0918D00B091E6
:100840008E000196A11DB11D80938B0090938C00AA
:10085000A0938D00B0938E00BF91AF919F918F9127
:100860003F912F910F900FBE0F901F9018951F92E0
:100870000F920FB60F9211242F933F934F935F93D4
:100880006F937F938F939F93AF93BF93CF93DF9398
:10089000EF93FF93809184009091850082309105C1
:1008A00009F46CC028F40097C9F0019779F182C06F
:1008B0008430910509F46BC030F1059709F07AC0D6
:1008C000809191008F5F8F7080939100E0919100F3
:1008D0008FB1F0E0EE59FF4F808362C08FB1882363
:1008E00031F08FB1869590919300891344C0E091C7
:1008F0008200F0918300309709F00995789B50C0F1
:1009000081E090E04FC08FB1811135C0C0917E0170
:10091000D0917F01209749F09091910080919200B1
:10092000981719F0DBDCFE010995E0919400F09135
:100930009500309709F0099590918F008091900073
:100940009817A9F0809190008F5F8F70809390002E
:10095000E0919000F0E0EE58FF4F80818FB982E087
:1009600090E09093850080938400D69A17C0D69823
:100970001FB88EE78EB988EA8DB910C083E090E089
:100980009093850080938400D6981FB811C085E0AD
:1009900090E09093850080938400D69880E709C00A
:1009A00084E090E090938500809384001FB8D69AED
:1009B0008EE78EB9FF91EF91DF91CF91BF91AF910B
:1009C0009F918F917F916F915F914F913F912F9167
:1009D0000F900FBE0F901F9018951F920F920FB699
:1009E0000F9211248F931092850010928400D69854
:1009F000CC9B02C0CE9BFCCFCE9902C088EF01C039
:100A000088EA8DB980EF8EB98F910F900FBE0F904D
:100A10001F901895789480B7826080BF80B78160FE
:100A200080BF83B7826083BF83B7816083BF89B78C
:100A3000816089BF1EBC8EB582608EBD8EB581601F
:100A40008EBD8FB581608FBD329A319A3098379ABA
:100A50008091800127DBB3DB609382017093830177
:100A600080938401909385018091A8001BDB809185
:100A7000A60018DB8091A40015DB8091A20012DB98
:100A8000809179010FDB809134010CDB8091EF00C4
:100A900009DB8091AA0006DB10929200109291006F
:100AA0001092900010928F0089E6809393008AB391
:100AB00080658ABBDC9ADE9AD69888EA8DB980EF89
:100AC0008EB988ED93E090937F0180937E0184EB53
:100AD00093E0909395008093940086E090E090934B
:100AE0008B0180938A0180918A0190918B0180FD16
:100AF00009C080918A0190918B0197FD019695958F
:100B0000879504C080918A0190918B01181619066F
:100B100014F461DBE8CF2DDB4B015C0190EDC92EB5
:100B200097E0D92EE12CF12C24DBDC01CB018819D4
:100B30009909AA09BB09883E9340A105B10558F05F
:100B400021E0C21AD108E108F10888EE880E83E09E
:100B5000981EA11CB11CC114D104E104F10421F7B9
:100B6000C0E0D0E006E010E082E0E82EF12C27DBC8
:100B70008090960090909700A0909800B090990077
:100B8000DC01CB0188199909AA09BB090A97A105BB
:100B9000B10598F020DB85E391E0A3DC80EF90E0E5
:100BA000A0DC8BEA90E09DDC0ADB609396007093FA
:100BB0009700809398009093990001DB80909D00AE
:100BC00090909E00A0909F00B090A000DC01CB010F
:100BD00088199909AA09BB0984369105A105B105AF
:100BE00008F470C080919C00882309F462C0809151
:100BF0009B00813009F448C008F43FC0823009F4FA
:100C00004BC08F3F09F04FC080919A0080936000E5
:100C10008091600087FB882780F98093780180911C
:100C2000600086FB882780F9809333018091600003
:100C300085FB882780F98093EE0080916000829583
:100C400081708093A9008091600083FB882780F9E0
:100C50008093A7008091600082FB882780F98093B1
:100C6000A50080916000869581708093A30080919B
:100C7000600081708093A10016C060919A0070E0BE
:100C800041E085E391E006C060919A0070E041E0A8
:100C900080EF90E050DB07C060919A0070E041E087
:100CA0008BEA90E0F7CF10938B0100938A011092AA
:100CB0009C0085DA60939D0070939E0080939F0056
:100CC0009093A0007CDA80907A0190907B01A090B4
:100CD0007C01B0907D01DC01CB0188199909AA093A
:100CE000BB09803A9F40A105B10508F444C080913A
:100CF0007801811106C041E060E070E085E391E099
:100D00001ADB80913301811106C041E060E070E0A0
:100D100080EF90E010DB8091EE00811106C041E091
:100D200060E070E08BEA90E006DB6091A9008091C2
:100D3000AA00F0D96091A7008091A800EBD960913A
:100D4000A5008091A600E6D96091A3008091A4003F
:100D5000E1D96091A1008091A200DCD9F0928B01D1
:100D6000E0928A012CDA60937A0170937B01809380
:100D70007C0190937D01C0907E01D0907F01C114D1
:100D8000D10439F0759B05C0A9DA882311F0F6016A
:100D90000995209709F4EBCE33D9E9CEE0E8F1E0EC
:100DA0008AE090E09183808388EE93E0A0E0B0E059
:100DB00086839783A087B187E7EAF0E0118281E01C
:100DC0008083E5EAF0E081838083E3EAF0E092E06B
:100DD00091838083E1EAF0E093E091838083E8E708
:100DE000F1E098E091838083E3E3F1E097E0918381
:100DF0008083EEEEF0E095E091838083E9EAF0E015
:100E000099E09183808368E070E085E391E0EDDA1A
:100E100067E070E080EF90E0E8DA65E070E08BEA90
:100E200090E0E3CAA1E21A2EAA1BBB1BFD010DC074
:100E3000AA1FBB1FEE1FFF1FA217B307E407F5078A
:100E400020F0A21BB30BE40BF50B661F771F881F66
:100E5000991F1A9469F760957095809590959B01FC
:100E6000AC01BD01CF010895EE0FFF1F0590F49175
:100E7000E02D09940CD0EBC0E3D040F0DAD030F094
:100E800021F45F3F19F0CCC0511115C1CFC0F0D093
:100E900098F39923C9F35523B1F3951B550BBB2741
:100EA000AA2762177307840738F09F5F5F4F220FEE
:100EB000331F441FAA1FA9F333D00E2E3AF0E0E8E7
:100EC00030D091505040E695001CCAF729D0FE2F33
:100ED00027D0660F771F881FBB1F261737074807C5
:100EE000AB07B0E809F0BB0B802DBF01FF2793587B
:100EF0005F4F2AF09E3F510568F092C0DCC05F3F13
:100F0000ECF3983EDCF3869577956795B795F79562
:100F10009F5FC9F7880F911D9695879597F908955A
:100F2000E1E0660F771F881FBB1F621773078407F6
:100F3000BA0720F0621B730B840BBA0BEE1F88F705
:100F4000E095089504D06894B111B5C0089598D083
:100F500088F09F5790F0B92F9927B751A0F0D1F0A2
:100F6000660F771F881F991F1AF0BA95C9F712C02C
:100F7000B13081F09FD0B1E008959CC0672F782FE9
:100F80008827B85F39F0B93FCCF386957795679598
:100F9000B395D9F73EF490958095709561957F4F04
:100FA0008F4F9F4F0895E89409C097FB3EF49095AA
:100FB0008095709561957F4F8F4F9F4F9923A9F032
:100FC000F92F96E9BB279395F695879577956795C1
:100FD000B795F111F8CFFAF4BB0F11F460FF1BC005
:100FE0006F5F7F4F8F4F9F4F16C0882311F096E998
:100FF00011C0772321F09EE8872F762F05C0662346
:1010000071F096E8862F70E060E02AF09A95660FFE
:10101000771F881FDAF7880F9695879597F90895B7
:1010200097F99F6780E870E060E008959FEF80EC9B
:10103000089500240A94161617061806090608953E
:1010400000240A9412161306140605060895092EA4
:101050000394000C11F4882352F0BB0F40F4BF2B13
:1010600011F460FF04C06F5F7F4F8F4F9F4F089553
:1010700057FD9058440F551F59F05F3F71F0479549
:10108000880F97FB991F61F09F3F79F0879508952E
:10109000121613061406551FF2CF4695F1DF08C04D
:1010A000161617061806991FF1CF8695710561056A
:1010B00008940895E894BB2766277727CB0197F912
:1010C00008950AD0C4CFB5DF28F0BADF18F0952311
:1010D00009F0A6CFABCFEFCFCBDFA8F39923D9F39D
:1010E0005523C9F3950F50E0551FAA27EE27FF2778
:1010F000BB2700240894679520F4E20FF31FB41F68
:101100000A1E220F331F441FAA1F6695A9F7779561
:1011100030F4F30FB41F0A1E121E08F46395330F48
:10112000441FAA1F221F769599F7879520F4B40FC4
:101130000A1E121E631F440FAA1F221F331F86950B
:10114000A9F7862F712D602D11249F5750408AF0EA
:10115000E1F088234AF0EE0FFF1FBB1F661F771FC9
:10116000881F91505040A9F79E3F510570F058CF0D
:10117000A2CF5F3FECF3983EDCF3869577956795B9
:10118000B795F795E7959F5FC1F7FE2B880F911DE7
:0C1190009695879597F90895F894FFCF85
:02119C00FF0052
:00000001FF
