:100000002CC050C04FC04EC04DC04CC04BC04AC0A9
:1000100049C048C047C0FBC445C044C043C0F7C541
:1000200040C5000039003600000000000004030253
:1000300001000000003B00380000003A00370001DA
:100040000101010101010102020201020408102064
:10005000408004020100F006D70711241FBECFE53F
:10006000D2E0DEBFCDBF10E0A0E6B0E0E8E2F8E10C
:1000700002C005900D92A836B107D9F720E0A8E696
:10008000B0E001C01D92A73FB207E1F710E0CCE25B
:10009000D0E003C02197FE01C7D7CB32D107D1F7FB
:1000A000D3D5B6CBADCF90E0FC01E65BFF4F2491FA
:1000B000FC01E15CFF4F8491882399F090E0880F68
:1000C000991FFC01E75CFF4FA591B491FC01ED5C29
:1000D000FF4F859194918FB7F894EC91E22BEC93BC
:1000E0008FBF0895823099F018F4813069F0089537
:1000F000833019F0843021F008958FB58F7702C0D6
:100100008FB58F7D8FBD089580B78F7702C080B780
:100110008F7D80BF08951F93CF93DF93282F30E00A
:10012000F901E85DFF4F8491F901E65BFF4FD4913F
:10013000F901E15CFF4FC491CC23C1F0162F81116E
:10014000D1DFEC2FF0E0EE0FFF1FED5CFF4FA5912C
:10015000B4918FB7F894111105C09C91ED2FE095E3
:10016000E92302C0EC91ED2BEC938FBFDF91CF918F
:100170001F9108953FB7F89480919800909199004D
:10018000A0919A00B0919B0022B708B600FE05C06E
:100190002F3F19F00196A11DB11D3FBFBA2FA92F06
:1001A000982F8827820F911DA11DB11DBC01CD0183
:1001B00043E0660F771F881F991F4A95D1F708956E
:1001C0002FB7F894609194007091950080919600FB
:1001D000909197002FBF08958F929F92AF92BF92F8
:1001E000CF92DF92EF92FF92CF93DF93EC01C88022
:1001F000D980EA80FB808C809D80AE80BF80E0DF6C
:10020000DC01CB0188199909AA09BB09C816D906CE
:10021000EA06FB0610F5C12CD12C7601888599855C
:10022000AA85BB85C816D906EA06FB0688F4C6016E
:10023000880F991FEC85FD85E80FF91F0190F0816B
:10024000E02D09958FEFC81AD80AE80AF80AE6CF18
:10025000B7DF6C837D838E839F83DF91CF91FF9087
:10026000EF90DF90CF90BF90AF909F908F900895C8
:10027000DC0111962C9111971496ED91FC91159734
:10028000E20FF11D90818091A0008F5F8F7020910F
:10029000A1008217E1F3E82FF0E0ED57FF4F9083C4
:1002A0008093A00008959091A2008091A3009817D8
:1002B00091F09091A2008091A300981730F4809162
:1002C000A2009091A300805F04C08091A200909151
:1002D000A300891B089580E00895CF93DF93C09118
:1002E0009E00D0919F00209749F0759B07C0DBDFEF
:1002F000882321F0FE01DF91CF910994DF91CF9106
:1003000008959091A2008091A3009817D1F3809155
:10031000A3008F5F8F708093A300E091A300F0E0B3
:10032000E159FF4F808108950F931F93CF93DF937F
:100330006150643090F4EC01E4DF8983B4DF8823FA
:1003400061F00A811B81DDDFF8018083ACDF882347
:1003500011F0D7DFFBCF81E08883DF91CF911F9130
:100360000F9108950F931F93CF93DF93FC014423C4
:1003700011F017821086848195818617970709F4FA
:1003800046C0EB016F3F710519F014F0CFEFD0E0DC
:10039000D7FF02C0C0E0D0E0D583C48300811181C3
:1003A000802F81DE209751F1CF3FD10549F1F8012F
:1003B000FF27E85DFF4FE491E23091F038F4E1303F
:1003C000D1F480B7806880BFC6BF21C0E33069F038
:1003D000E43089F48FB580628FBDD9BDC8BD17C028
:1003E00080B7806280BFCCBF12C08FB580688FBDE0
:1003F000DBBDCABD0CC0C038D10514F460E001C03B
:1004000061E0802FDF91CF911F910F9184CEDF911A
:10041000CF911F910F9108959DEBE92E90E0F92E59
:1004200008E610E0C0916000D0E0D701FE91EE91A7
:100430007D01CE01028002C0959587950A94E2F76E
:1004400080FD07C041E060E070E0F80180819181AB
:1004500089DF0E5F1F4FF0E00E361F0719F714E01B
:10046000E12FF0E0EE0FFF1FE355FF4F0190F08109
:10047000E02DBE01028002C0759567950A94E2F7EF
:100480006170818148DE1150EBCFFC01862F15820F
:100490001482168213861486158616861786108A8D
:1004A000118A128A148A138A158A168A21E030E08A
:1004B000308F278B118E128E138E148E158E168E02
:1004C000178E10A212A211A213A214A236A325A362
:1004D00017A210A611A612A613A614A615A616A654
:1004E00010AA17A611AA12AA34AB23AB15AA16AAF2
:1004F00017AA10AE11AE12AE13AE14AE16AE15AEF4
:1005000017AEDF01A05CBF4F1C9211962D933C9358
:1005100060837183C8CD0F931F93CF93DF93FC014A
:1005200024853585232BC9F4EC014ADE0C811D811D
:100530002E813F81DC01CB01801B910BA20BB30B01
:10054000088119812A813B8180179107A207B3078F
:1005500020F081E090E09D878C87DF91CF911F9103
:100560000F910895CF93DF93EC012ADE6C837D8396
:100570008E839F831D861C861A861B86DF91CF91F2
:100580000895CF92DF92EF92FF920F931F93CF9334
:10059000DF93EC018F81882331F18C819D818F3F26
:1005A000910509F003C1CE014996B5DF8DA19EA149
:1005B000019709F0FBC040E060E070E0CE01D2DEC0
:1005C000CE01C596CFDF8E8181110DC08A819B81BE
:1005D000181619061CF401979B838A838A819B81D4
:1005E000892B09F41F828885882309F404C10985B1
:1005F0001A850130110509F445C024F401151105CF
:1006000051F0F9C00230110509F453C0033011054F
:1006100009F49EC0F0C0CE010B967DDF8F89988DC6
:10062000892B51F58B859C85AD85BE85892B8A2BC1
:100630008B2BE9F0C5DDCF84D888E988FA886C195E
:100640007D098E099F098FD56B017C016B857C85A7
:100650008D859E8588D59B01AC01C701B601EAD482
:1006600020E030E048EC52E40CD64CD58B01B801C8
:10067000110F880B990B56C0CE01499673DF81E0AC
:1006800090E063C0CE01499646DF8DA19EA1892BE3
:1006900051F48C819D818F3F910509F4ACC040E0FD
:1006A0006FEF70E067C0CE0187965CDF82E090E07C
:1006B0004CC0CE0187962FDF8BA99CA9892B09F00E
:1006C0003FC08FA198A5A9A5BAA5892B8A2B8B2BF2
:1006D000E9F076DDCBA4DCA4EDA4FEA46C197D09C1
:1006E0008E099F0940D56B017C016FA178A589A572
:1006F0009AA539D59B01AC01C701B6019BD420E076
:1007000030E048EC52E4BDD5FDD402C060E070E0BA
:1007100084E690E09C01261B370BB901072E000CE4
:10072000880B990B22D520E030E048EC52E482D4CB
:1007300020E030E04FE753E4A4D5E4D440E01AC011
:10074000CE01C5960FDF83E090E09A87898753C07A
:10075000CE01C596E0DEFE01EF5BFF4F8081918107
:10076000892B91F48C819D81892B09F444C040E050
:1007700060E070E0CE01DF91CF911F910F91FF906B
:10078000EF90DF90CF90EECD8E81811109C08A81EC
:100790009B811816190654F501979B838A8326C0FE
:1007A000CE010B96DFDE1A86198625C08C819D81CD
:1007B000892B51F4CE01C596AEDEFE01EF5BFF4FF3
:1007C00080819181019749F08C819D818F3F9105B6
:1007D00009F409CF892B09F406CF40E06FEF70E0F0
:1007E000CE01C0DDCE014996BDDEFDCE8A819B8162
:1007F000892BB1F61886DF91CF911F910F91FF9051
:10080000EF90DF90CF9008958091A500882309F4A0
:1008100044C08091A600833098F08F3FB1F5E091FD
:10082000A700F091A8008081809360009091A600BD
:10083000E091A900F091AA00E90FF11D808325C085
:10084000E091A700F091A8006081E091A60070E01F
:10085000F0E0EE0FFF1FE859FF4F41E080819181EA
:1008600081DD8091A600E091A600A091A900B09141
:10087000AA00A80FB11DF0E0EE0FFF1FE859FF4FCF
:100880000190F081E02D84818C9386E090E090933C
:10089000C8008093C7001092A50008958F929F9280
:1008A000AF92BF92CF92DF92EF92FF920F931F937E
:1008B000CF93DF93EC0184DC6B017C018A859B85FF
:1008C000181619060CF04DC08A819B81AC81BD8140
:1008D00046015701881A990AAA0ABB0A6E817F81CC
:1008E000888599852AE030E040E050E07BD32815E8
:1008F00039054A055B0508F034C008811981980163
:100900003327F901E85DFF4F8491F901E65BFF4F62
:10091000A490F901E15CFF4FB490BB2099F08111E4
:10092000E1DBEB2DF0E0EE0FFF1FEE5DFF4FA59139
:10093000B491EC91AE2291E080E009F490E0692F4F
:10094000782F02C060E070E081E06827802FE3DB51
:100950008A859B8501979B878A87CA82DB82EC8286
:10096000FD82DF91CF911F910F91FF90EF90DF906B
:10097000CF90BF90AF909F908F900895CF92DF92CD
:10098000EF92FF920F931F93CF93DF93EC018B01B4
:10099000C884D984EA84FB84C601019662E070E0D1
:1009A000DBD4C114D104E104F10431F06C857D8500
:1009B000A601440F551FD4D68FEFC81AD80AE80AEB
:1009C000F80AC886D986EA86FB86B601660F771FC5
:1009D0008C859D8502D69D878C8728853985F90170
:1009E000E150F048EE0FFF1FE80FF91F0190F08172
:1009F000E02DD8018D919C9191838083DF91CF91DF
:100A00001F910F91FF90EF90DF90CF9008951F926C
:100A10000F920FB60F9211242F933F938F939F93B2
:100A2000AF93BF938091940090919500A091960010
:100A3000B09197003091930026E0230F2D3720F4DA
:100A40000296A11DB11D05C029E8230F0396A11D23
:100A5000B11D209393008093940090939500A093F0
:100A60009600B09397008091980090919900A09182
:100A70009A00B0919B000196A11DB11D8093980032
:100A800090939900A0939A00B0939B00BF91AF916F
:100A90009F918F913F912F910F900FBE0F901F90BC
:100AA00018951F920F920FB60F9211242F933F9318
:100AB0004F935F936F937F938F939F93AF93BF9366
:100AC000CF93DF93EF93FF93809181009091820009
:100AD0008230910509F46CC028F40097C9F00197A1
:100AE00079F182C08430910509F46BC030F105972B
:100AF00009F07AC08091A2008F5F8F708093A2006E
:100B0000E091A2008FB1F0E0E159FF4F808362C015
:100B10008FB1882331F08FB186959091A40089130D
:100B200044C0E0917F00F0918000309709F0099572
:100B3000789B50C081E090E04FC08FB1811135C0EB
:100B4000C0919E00D0919F00209749F09091A20003
:100B50008091A300981719F0A6DBFE010995E0919A
:100B60009C00F0919D00309709F009959091A000AC
:100B70008091A1009817A9F08091A1008F5F8F70DC
:100B80008093A100E091A100F0E0ED57FF4F80813C
:100B90008FB982E090E09093820080938100D69A92
:100BA00017C0D6981FB88EE78EB988EA8DB910C0E5
:100BB00083E090E09093820080938100D6981FB8E4
:100BC00011C085E090E09093820080938100D698D8
:100BD00080E709C084E090E09093820080938100D8
:100BE0001FB8D69A8EE78EB9FF91EF91DF91CF9122
:100BF000BF91AF919F918F917F916F915F914F9135
:100C00003F912F910F900FBE0F901F9018951F923C
:100C10000F920FB60F9211248F93109282001092B0
:100C20008100D698CC9B02C0CE9BFCCFCE9902C04F
:100C300088EF01C088EA8DB980EF8EB98F910F904F
:100C40000FBE0F901F901895789480B7826080BF78
:100C500080B7816080BF83B7826083BF83B78160C4
:100C600083BF89B7816089BF1EBC8EB582608EBD8F
:100C70008EB581608EBD8FB581608FBD329A319AFD
:100C80003098379A8091BD000EDA9ADA6093BF00EF
:100C90007093C0008093C1009093C2006EE474E032
:100CA00089EC90E06BDE61EC72E089EC90E066DE4E
:100CB00061EC72E089EC90E061DE61EC72E089EC5D
:100CC00090E05CDE6DE671E089EC90E057DE64E078
:100CD00074E087ED90E052DE6CE072E085EE90E02B
:100CE0004DDECDEAD0E0E991F9918181DCD920E0B7
:100CF000CD3BD207C1F71092A3001092A200109230
:100D0000A1001092A00089E68093A4008AB38065B8
:100D10008ABBDC9ADE9AD69888EA8DB980EF8EB9C4
:100D200084E991E090939F0080939E0088E391E096
:100D300090939D0080939C0086E090E09093C80083
:100D40008093C7008091C7009091C80080FD09C0C2
:100D50008091C7009091C80097FD01969595879561
:100D600004C08091C7009091C8001816190624F499
:100D70008DEB90E093DDE6CFFDD94B015C0180ED7A
:100D8000C82E87E0D82EE12CF12CF4D9DC01CB0160
:100D900088199909AA09BB09883E9340A105B105A4
:100DA00058F081E0C81AD108E108F10828EE820E57
:100DB00023E0921EA11CB11CC114D104E104F10472
:100DC00021F7C0E0D0E085EE90E006DA87ED90E014
:100DD00003DA89EC90E000DA2097A9F311D9F3CF78
:100DE000CF92DF92EF92FF920F931F93CF93DF93F7
:100DF000EDEBF0E08AE090E09183808388EE93E071
:100E0000A0E0B0E086839783A087B187C5EAD0E0F1
:100E10008EE690E09F838E8381E090E0B1D29B8349
:100E20008A8361E070E084E090E096D29D838C83B9
:100E3000E9ECF0E08AE090E0A0E0B0E0808391830C
:100E4000A283B3831086118612861386E7EDF0E045
:100E500084E690E0A0E0B0E080839183A283B38336
:100E60001086118612861386E5EEF0E080EA9FE098
:100E7000A0E0B0E080839183A283B38310861186C3
:100E80001286138683E090E07BD2FC011182C1E0E0
:100E9000C083D3E0D2830DEA10E0D8018D939C93F8
:100EA00083E090E06DD2FC01C183C08382E0F82E24
:100EB000F282D8011396FC93EE93129783E090E0B0
:100EC0005FD2FC01F182C083C283D80115969C9346
:100ED0008E93149783E090E053D2FC01D183C083BA
:100EE0001282D80117969C938E93169783E090E018
:100EF00047D2FC0188E08183C083D7E0D283D80148
:100F00001996FC93EE93189783E090E039D27C0118
:100F1000FC01D183C08386E08283D8011B96FC92BA
:100F2000EE921A9783E090E02BD26C0185E0F601F7
:100F30008183C0838283D8011D96DC92CE921C9758
:100F400083E090E01DD2FC0189E08183C08384E0CE
:100F50008283D8011F96FC93EE931E9783E490E062
:100F60000FD28C0169E070E090DAC8E6D0E0198316
:100F7000088383E490E004D28C01F601618170E083
:100F800084DA1B830A8383E490E0FAD18C01D701D1
:100F900011966C9170E079DA1D830C83DF91CF910B
:100FA0001F910F91FF90EF90DF90CF900895CF9316
:100FB000DF938091F1009091F20077D28091E3006D
:100FC0009091E40072D28091D5009091D6006DD2BC
:100FD000C5EAD0E08A819B8168D28C819D81DF91B6
:100FE000CF9163C2A1E21A2EAA1BBB1BFD010DC04B
:100FF000AA1FBB1FEE1FFF1FA217B307E407F507C9
:1010000020F0A21BB30BE40BF50B661F771F881FA4
:10101000991F1A9469F760957095809590959B013A
:10102000AC01BD01CF010895EE0FFF1F0590F491B3
:10103000E02D09940CD0EBC0E3D040F0DAD030F0D2
:1010400021F45F3F19F0CCC0511115C1CFC0F0D0D1
:1010500098F39923C9F35523B1F3951B550BBB277F
:10106000AA2762177307840738F09F5F5F4F220F2C
:10107000331F441FAA1FA9F333D00E2E3AF0E0E825
:1010800030D091505040E695001CCAF729D0FE2F71
:1010900027D0660F771F881FBB1F26173707480703
:1010A000AB07B0E809F0BB0B802DBF01FF279358B9
:1010B0005F4F2AF09E3F510568F092C0DCC05F3F51
:1010C000ECF3983EDCF3869577956795B795F795A1
:1010D0009F5FC9F7880F911D9695879597F9089599
:1010E000E1E0660F771F881FBB1F62177307840735
:1010F000BA0720F0621B730B840BBA0BEE1F88F744
:10110000E095089504D06894B111B5C0089598D0C1
:1011100088F09F5790F0B92F9927B751A0F0D1F0E0
:10112000660F771F881F991F1AF0BA95C9F712C06A
:10113000B13081F09FD0B1E008959CC0672F782F27
:101140008827B85F39F0B93FCCF3869577956795D6
:10115000B395D9F73EF490958095709561957F4F42
:101160008F4F9F4F0895E89409C097FB3EF49095E8
:101170008095709561957F4F8F4F9F4F9923A9F070
:10118000F92F96E9BB279395F695879577956795FF
:10119000B795F111F8CFFAF4BB0F11F460FF1BC043
:1011A0006F5F7F4F8F4F9F4F16C0882311F096E9D6
:1011B00011C0772321F09EE8872F762F05C0662384
:1011C00071F096E8862F70E060E02AF09A95660F3D
:1011D000771F881FDAF7880F9695879597F90895F6
:1011E00097F99F6780E870E060E008959FEF80ECDA
:1011F000089500240A94161617061806090608957D
:1012000000240A9412161306140605060895092EE2
:101210000394000C11F4882352F0BB0F40F4BF2B51
:1012200011F460FF04C06F5F7F4F8F4F9F4F089591
:1012300057FD9058440F551F59F05F3F71F0479587
:10124000880F97FB991F61F09F3F79F0879508956C
:10125000121613061406551FF2CF4695F1DF08C08B
:10126000161617061806991FF1CF869571056105A8
:1012700008940895E894BB2766277727CB0197F950
:1012800008950AD0C4CFB5DF28F0BADF18F095234F
:1012900009F0A6CFABCFEFCFCBDFA8F39923D9F3DB
:1012A0005523C9F3950F50E0551FAA27EE27FF27B6
:1012B000BB2700240894679520F4E20FF31FB41FA6
:1012C0000A1E220F331F441FAA1F6695A9F77795A0
:1012D00030F4F30FB41F0A1E121E08F46395330F87
:1012E000441FAA1F221F769599F7879520F4B40F03
:1012F0000A1E121E631F440FAA1F221F331F86954A
:10130000A9F7862F712D602D11249F5750408AF028
:10131000E1F088234AF0EE0FFF1FBB1F661F771F07
:10132000881F91505040A9F79E3F510570F058CF4B
:10133000A2CF5F3FECF3983EDCF3869577956795F7
:10134000B795F795E7959F5FC1F7FE2B880F911D25
:101350009695879597F908950F931F93CF93DF93F1
:101360000FD28C010DD0EC01009721F0A80160E0B4
:1013700070E0FFD1CE01DF91CF911F910F910895C1
:10138000CF93DF938230910510F482E090E0E091FA
:10139000F500F091F60020E030E0C0E0D0E03097BA
:1013A00011F14081518148175907C0F0481759077A
:1013B00061F482819381209719F09B838A832BC0EB
:1013C0009093F6008093F50026C02115310519F0A1
:1013D0004217530718F49A01BE01DF01EF010280A2
:1013E000F381E02DDCCF2115310509F1281B390BE4
:1013F0002430310590F412968D919C9113976115CC
:10140000710521F0FB019383828304C09093F60061
:101410008093F500FD01329644C0FD01E20FF31FF9
:1014200081939193225031092D933C933AC020919E
:10143000F3003091F400232B41F4209163003091AC
:1014400064003093F4002093F30020916100309108
:1014500062002115310541F42DB73EB7409165007A
:1014600050916600241B350BE091F300F091F400DD
:10147000E217F307A0F42E1B3F0B2817390778F06B
:10148000AC014E5F5F4F2417350748F04E0F5F1FCA
:101490005093F4004093F3008193919302C0E0E0F5
:1014A000F0E0CF01DF91CF9108950F931F93CF9379
:1014B000DF93009709F48CC0FC01329713821282EB
:1014C0000091F5001091F6000115110581F42081BD
:1014D0003181820F931F2091F3003091F40028177F
:1014E000390779F5F093F400E093F30071C0D80167
:1014F00040E050E0AE17BF0750F412962D913C919A
:101500001397AD012115310509F1D901F3CF9D01E3
:10151000DA013383228360817181860F971F8217DE
:10152000930769F4EC0128813981260F371F2E5F5C
:101530003F4F318320838A819B8193838283452B14
:1015400029F4F093F600E093F50042C01396FC9363
:10155000EE931297ED01499159919E01240F351F89
:10156000E217F30771F480819181840F951F029631
:1015700011969C938E938281938113969C938E9364
:101580001297E0E0F0E0D80112968D919C911397AC
:10159000009719F0F8018C01F6CF8D919C9198017C
:1015A0002E5F3F4F820F931F2091F3003091F40084
:1015B0002817390769F4309729F41092F600109231
:1015C000F50002C0138212821093F4000093F3001E
:1015D000DF91CF911F910F910895A0E0B0E0E2EF6D
:1015E000FAE0E3C0EC01009719F4CB01C9DEB4C006
:1015F000FC01E60FF71F9C0122503109E217F307A7
:1016000008F4A8C0D9010D911C911197061717076E
:10161000A8F00530110508F49BC0C801049786178F
:10162000970708F495C002501109061B170B019388
:1016300011936D937C93CF0138DF8AC05B01A01AB0
:10164000B10A4C01800E911EA091F500B091F600F8
:1016500040E050E0E12CF12C109709F44AC0A815A5
:10166000B905D1F56D907C901197630182E0C80EA9
:10167000D11CCA14DB0480F1A3014A195B096A0179
:1016800082E0C80ED11C1296BC9012971396AC91B2
:10169000B5E0CB16D10440F0B282A38351834083DE
:1016A000D9016D937C930AC00E5F1F4FC301800F59
:1016B000911FF90191838083EB2DFA2FE114F1043E
:1016C00031F0D7011396FC93EE93129741C0F0933B
:1016D000F600E093F5003CC08D919C91119748175E
:1016E000590708F4AC017D0112960D90BC91A02D14
:1016F000B3CF8091F3009091F40088159905E1F43F
:1017000046175707C8F480916100909162000097D6
:1017100041F48DB79EB74091650050916600841BDF
:10172000950BE817F907B0F4F093F400E093F30099
:10173000F901718360830CC0CB0122DE7C0100972C
:1017400049F0A801BE010CD0CE01AFDEC70104C034
:10175000CE0102C080E090E0CDB7DEB7EEE041C040
:10176000FB01DC0102C001900D9241505040D8F7BE
:101770000895DC0101C06D9341505040E0F7089599
:101780000024552704C0080E591F880F991F009781
:1017900029F076956795B8F37105B9F7802D952FE7
:1017A00008952F923F924F925F926F927F928F9205
:1017B0009F92AF92BF92CF92DF92EF92FF920F93E0
:1017C0001F93CF93DF93CDB7DEB7CA1BDB0B0FB6EA
:1017D000F894DEBF0FBECDBF09942A8839884888A7
:1017E0005F846E847D848C849B84AA84B984C8843D
:1017F000DF80EE80FD800C811B81AA81B981CE0F34
:10180000D11D0FB6F894DEBF0FBECDBFED01089518
:1018100010E0CCE2D0E003C0FE0106DC2196CD3220
:08182000D107D1F7F894FFCFC6
:08182800FF0000F70080000042
:00000001FF
